:100DD200456E746572207468652070617373776FF5
:100DE20072643A002D2D2D2D2D2D00436F727265E8
:100DF20063742050617373776F72640057726F6E01
:0B0E0200672050617373776F7264000B
:1008000078217C007D007BFF7A0D79D27E007F14F9
:10081000120BE678357C007D007BFF7A0D79E67E51
:10082000007F07120BE6783C7C007D007BFF7A0D91
:1008300079ED7E007F11120BE6784D7C007D007B08
:10084000FF7A0D79FE7E007F0F120BE6E4F55DF571
:100850005EF55FF560C2A6C2A7120E94C2AFE55F57
:10086000701F120E807B007A007921E4FDFF120ECA
:10087000397B007A0079357D01E4FF120E39755F0E
:10088000011209D5120C25120D7A300256E55D7061
:1008900014120E807F05120EE77B007A00793CE48B
:1008A000FDFF120E39755D0120B0187F14120EE79E
:1008B00020B010D2AF75650CE4F564120ED9C2AF4A
:1008C00030B0FD20B1187F14120EE720B110D2AF66
:1008D000756505E4F564120ED9C2AF30B1FD200490
:1008E00002C20030001E20021BE5607017120E804D
:1008F0007F05120EE77B007A00794DE4FDFF120EB2
:100900003975600130044E30024BE55E7020120EE6
:10091000807B007A007921E4FDFF120E39E4F55C5A
:10092000740F255CF8762D055CE55CB406F22000BA
:10093000241209D5120C25A20172035004D20080A2
:1009400014E55E700BFB7A00790F7D01FF120E3902
:10095000755E0180D9300525C205E4F517C204F59E
:100960005C7408255CF8E6FF7419255CF8A607742A
:100970000F255CF8762D055CE55CB406E430031EBB
:10098000C203E4F517C200F55C7419255CF87630F3
:10099000740F255CF8762D055CE55CB406EB200150
:1009A0000302085EC201C204E4F517C200C202F5E8
:1009B0005EF55DF55FF560F55CE55CC394064003AC
:1009C00002085E7408255CF87630740F255CF876B2
:0509D0002D055C80E430
:030E610001640029
:0D0ED9007FA77EAB7D10DDFEDEFADFF600A8
:010EE60022E9
:100E9400D2AF758900438901758CFF758AA4D2A9E4
:030EA400D28C22CB
:03000B00020E0DD5
:100E0D00C0E0C0D0C28C758CFF758AA4E564D39503
:100E1D00655004D2B78002C2B70564E564C394C8B7
:0C0E2D004003756400D28CD0D0D0E032BD
:100E6400071930303030303000070861616161614A
:0B0E74006100070F2D2D2D2D2D2D00EE
:0D0EE700EFD3940040077E7DDEFE1F80F3F8
:010EF40022DB
:1009D50075B0FE85B0165316F0E51664F060487FD5
:1009E5000A120EE7E51664F0603D85B016E516249B
:1009F50082602124C0601624E0600B24F0701AE4A4
:100A0500F518051780137518010517800C75180260
:100A1500051780057518030517E51664F060088548
:100A2500B0165316F080F275B0FD85B0165316F06A
:100A3500E51664F060487F0A120EE7E51664F0607B
:100A45003D85B016E5162483602124C0601624E098
:100A5500600B24F0701A75180405178013751805B6
:100A65000517800C751806051780057518070517F5
:100A7500E51664F0600885B0165316F080F275B07F
:100A8500FB85B0165316F0E51664F060487F0A1230
:100A95000EE7E51664F0603D85B016E51624856021
:100AA5002124C0601624E0600B24F0701A75180824
:100AB500051780137518090517800CD204E4F5177E
:100AC5008005300202D205E51664F0600885B0168F
:100AD5005316F080F275B0F785B0165316F0E5168B
:100AE50064F0602C7F0A120EE7E51664F06021853C
:100AF500B016E5162429600824F07006D20380029A
:100B0500D201E51664F0600885B0165316F080F240
:010B150022BD
:100C2500300003020CEDE51724FE602C146041141E
:100C3500605614606B147003020CC824056003022F
:100C45000CEDE5182430F508200205750F2A80669D
:100C5500E5182430F50F805EE5182430F509E50F19
:100C6500B42A0575102A8006E5182430F51080464B
:100C7500E5182430F50AE50FB42A0575112A800612
:100C8500E5182430F511802EE5182430F50BE50F15
:100C9500B42A0575122A8006E5182430F512801647
:100CA500E5182430F50CE50FB42A0575132A8006DE
:100CB500E5182430F5137B007A00790F7D01E4FFF8
:100CC500020E39E5182430F50DE50FB42A05751423
:100CD5002A8006E5182430F5147B007A00790F7D0B
:090CE50001E4FF120E39D20022D5
:100D7A00300054E51AB509047F0180027F00E519A5
:100D8A00B508047E0180027E00EE5FFFE51BB50A0E
:100D9A00047E0180027E00EE5FFFE51CB50B047E37
:100DAA000180027E00EE5FFFE51DB50C047E018026
:100DBA00027E00EE5FFFE51EB50D047E0180027E15
:080DCA0000EE5F6002D202227C
:100EA7007580FFC2B5D2B6D2B4AF80C2B4EF20E727
:010EB700F644
:010EB8002217
:100EB900AE07120EA7C2B5C2B68E80D2B4C2B42292
:100EC900AE07120EA7D2B5C2B68E80D2B4C2B42272
:0C0EF500ED6003430740430780020EB984
:100E39008B618A628963120EF5AB61AA62A963129A
:100E49000C0C60130563E5637002056214F9120C5A
:080E59000CFF120EC980E22219
:100E80007F38120EB97F0C120EB97F06120EB97F91
:040E900001020EB994
:03000000020CEE01
:0C0CEE00787FE4F6D8FD758165020D35B5
:100B1600E709F608DFFA8046E709F208DFFA803EC1
:100B260088828C83E709F0A3DFFA8032E309F608AE
:100B3600DFFA8078E309F208DFFA807088828C8316
:100B4600E309F0A3DFFA806489828A83E0A3F608CA
:100B5600DFFA805889828A83E0A3F208DFFA804CA4
:100B660080D280FA80C680D4806980F2803380107B
:100B760080A680EA809A80A880DA80E280CA8033E4
:100B860089828A83ECFAE493A3C8C582C8CCC5835C
:100B9600CCF0A3C8C582C8CCC583CCDFE9DEE7802C
:100BA6000D89828A83E493A3F608DFF9ECFAA9F0AB
:100BB600EDFB2289828A83ECFAE0A3C8C582C8CC01
:100BC600C583CCF0A3C8C582C8CCC583CCDFEADE1A
:100BD600E880DB89828A83E493A3F208DFF980CC7C
:100BE60088F0EF60010E4E60C388F0ED2402B40475
:100BF6000050B9F582EB2402B4040050AF2323451C
:060C06008223900B6673CF
:100C0C00BB010689828A83E0225002E722BBFE02E6
:090C1C00E32289828A83E4932219
:100CFA00020800E493A3F8E493A34003F68001F208
:100D0A0008DFF48029E493A3F85407240CC8C333FA
:100D1A00C4540F4420C8834004F456800146F6DFC9
:100D2A00E4800B0102040810204080900E61E47EEA
:100D3A00019360BCA3FF543F30E509541FFEE493BE
:100D4A00A360010ECF54C025E060A840B8E493A385
:100D5A00FAE493A3F8E493A3C8C582C8CAC583CAB0
:100D6A00F0A3C8C582C8CAC583CADFE9DEE780BE68
:010E7F000072
:00000001FF
